:020000022000DC
:1060000000000120756302005D6302005F6302000F
:106010006163020063630200656302000000000028
:1060200000000000000000000000000067630200A4
:1060300069630200000000006B6302006D630200F0
:106040006D8902006F6302007D8D02006F630200A4
:106050006F6302006F630200318C02006F63020005
:106060006F6302006F6302006F6302006F630200E0
:106070006F6302006F6302006F6302006F630200D0
:106080006F6302009D7902006F6302006F6302007C
:106090006F6302006F63020041B902006F63020088
:1060A0006F6302006F6302006F6302006F630200A0
:1060B0006F6302006F630200000000000000000038
:1060C0006F6302006F6302006F6302006F63020080
:1060D0006F6302006F6302006F6302000000000044
:1060E00000000000000000000000000000000000B0
:1060F00000000000000000000000000000000000A0
:10610000000000000000000000000000000000008F
:10611000000000000000000000000000000000007F
:10612000000000000000000000000000000000006F
:10613000000000000000000000000000000000005F
:10614000000000000000000000000000000000004F
:10615000000000000000000000000000000000003F
:10616000000000000000000000000000000000002F
:10617000000000000000000000000000000000001F
:10618000000000000000000000000000000000000F
:1061900000000000000000000000000000000000FF
:1061A00000000000000000000000000000000000EF
:1061B00000000000000000000000000000000000DF
:1061C00000000000000000000000000000000000CF
:1061D00000000000000000000000000000000000BF
:1061E00000000000000000000000000000000000AF
:1061F000000000000000000000000000000000009F
:10620000354936480A1A02D0072291438D4634494F
:1062100034480A1A06D00722914381F309880222E2
:1062200082F3148830483149314A00F044F831484B
:106230003149324A00F03FF831483249324A00F0E1
:106240003AF832483249334A00F035F83248334997
:10625000334A00F030F833483349344A00F02BF821
:1062600033483449344A00F026F83448344900228F
:1062700000F02CF833483449002200F027F8334866
:106280003349091A082902DB002202604160314AC1
:1062900090471F481F49884205D00268043003B464
:1062A000904703BCF7E700208646EC46002000211B
:1062B000294A9047FEE7884207D0521A05D0037852
:1062C00001300B700131013AF9D17047884202D098
:1062D00002700130FAE770470000012000E0002062
:1062E0000000012000000120E4D50200D82A00208F
:1062F000C02B0020D0630200D063020024C602003D
:10630000E4D50200D82A0020D82A002028C702009D
:1063100028C7020028C7020028C7020028C70200B9
:1063200028C7020028C7020028C70200E4D50200DF
:10633000CCD60200C02B0020C02B0020C02B002098
:106340004C3E00204C3E00204C3E00204C3E0020A5
:106350004C5E00209D630200999F0200FEE7FEE76D
:10636000FEE7FEE7FEE7FEE7FEE7FEE7FEE7FEE705
:1063700000F002B8FFF7FCBF0F484FF00701884359
:1063800085460E4880470E48016841F4700101605F
:10639000BFF34F8FBFF36F8FFFF732BF09480A4932
:1063A0000A4A884207D0521A05D0037801300B7090
:1063B0000131013AF9D17047000001200583020044
:1063C00088ED00E028C70200D82A0020D82A002043
:1063D0007047000007B5044B0093044A402300F0C7
:1063E00032F803B05DF804FBF1630200C12B00201A
:1063F0002DE9F84388461446B2B10F4B0F4E0325E2
:10640000002743F00109224608EB0701002003F0B2
:1064100057FF0744241A48B933782BB14FF47A4018
:10642000C847013D02D13570BDE8F88301233370C0
:10643000002CE8D1F8E700BF30C70200C02B0020D5
:10644000704703F06DBFF0B595B01D46164608467F
:106450000C4601F051FE1A9B0D93CDE9086500250D
:106460002B46082205A920460A958DF82C500C953C
:1064700001F05EFE079B0293069B03939DF8143088
:106480008DF8115003F00302012A1DD1BDF814202C
:10649000059DC3F3C203C2F383168DF81030B2001A
:1064A00008230EA9204601F043FEC5F3952508AB4D
:1064B0000093324602AB0EA9284600F033FB20467B
:1064C00001F01EFE15B0F0BD022AF8D1BDF816503D
:1064D000C3F3C203C5F389158DF810300827082DC2
:1064E0002E4628BF08263B4632460EA9204601F01C
:1064F0001FFEAD1B08AB02AA31460EA8374400F0C0
:1065000075FB002DEBD1DAE708B5FFF79AFF0448D9
:10651000042100F071FA034B01225A7108BD00BF3B
:1065200018C70200D82A0020037813F0040216D0FE
:1065300003F00303012B03D0022B09D00120704785
:106540000A6800880232C0F3831002440A60F5E74B
:106550000B684288023303EB92130B60EEE71046A0
:10656000704700002DE9F04FDFF81CA187B00F46FF
:1065700000230446861C0DF1070015468DF80730F0
:1065800001F09EF8DAF804203A60DAF8083003F5F2
:1065900080739B1A0AF21C470AF583690AF21448B1
:1065A000B3421AD30020002D69D004F00F039B01E1
:1065B00043F0050363F30F00DAF80430DAB2033274
:1065C00033444AF822009DF80700CAF8043001F06D
:1065D0009BF8012007B0BDE8F08F0121384601F09B
:1065E000BAFA484601F0CFFA404601F0CCFADAF8A0
:1065F00008000290C0B203300AEB800002A9FFF746
:1066000093FF029B30BBDAB20AEB8202D16803919E
:106610009A1C0133DBB20AEB83030292D3F80CB06D
:1066200001F00303012B22D0022B15D083464046F4
:1066300001F0ACFA10B1029BCAF80830594638464E
:1066400001F089FADAF80830DAF8042003F58073EB
:106650009B1AA5E7D8B2CEE7BDF80E30C3F3891375
:1066600003334FEA1B4B02EB93030293DFE7BDF8C2
:106670000C30C3F383134FEA1B4B1344F5E7A40517
:1066800044F0060098E700BFD42C0020064B0748D2
:1066900010B500221A7001F0E8FC044610B9044855
:1066A00001F090FD204610BDD42C002084C60200CD
:1066B0006CC7020030B50A4C71B10A4A0A49121B74
:1066C000D20800239A4201D1002030BD31F8235076
:1066D000854202D00133F5E7034654F83300F4E76E
:1066E00098C6020018C70200D82A0020094B0139B9
:1066F00003EBC000032909D8DFE801F00A02040611
:106700000420704700797047407970470020704737
:106710000220704798C6020070470000034BD3E97F
:106720000130C31A58425841704700BFD42C002092
:106730002DE9F04186B0FFF7F1FF0546002840F053
:10674000ED80774CC4F81804BFF34F8FA368029311
:10675000DBB2033304EB830002A9FFF7E5FE029BE3
:1067600018B1D4F81824002A5AD0DAB2991C01338F
:1067700004EB8202DBB204EB8303D268DB68049390
:1067800002F00303022B0392029154D1BDF80E30A4
:106790006448C3F38917502F3E4628BF502606F1A0
:1067A000080166F38F13C1F30901ADF80E3001F053
:1067B00074FC0546002800F09C8001F09DFC00233D
:1067C000082203A9284601F0A9FC0299CB43DBB2B9
:1067D0000133C9B20331B6EB830F4FEA830204EBF6
:1067E000810125D95FFA82F80823A6EB080628461E
:1067F00001F094FCF6B208F108034B4903F0FC03E6
:106800003246284601F08AFC029B033703EB9707C8
:106810000297D4F81834002B43D1D4F8106453E015
:1068200062689A4294D8A260284606B0BDE8F0811A
:1068300008233246E5E7012B5BD1BDF80C3039481F
:10684000C3F38311062928BF062161F3891302319E
:1068500001F00F018900ADF80C3001F01EFC054677
:10686000002846D001F048FC0023082203A928464E
:1068700001F054FC0026BDF80C20C2F38312B300D3
:10688000964203F10803C4D202994A1CC9B20331EB
:10689000029204EB81010422284601F03FFC0136FC
:1068A000E9E7284601F02CFCFFF738FF80F00100F3
:1068B000C5B2B9E7F3685B7923B1336829461B6831
:1068C00030469847F3681E68002EF3D1284601F041
:1068D00017FC0DF107008DF8076000F0F1FED4F809
:1068E00018340BB9029BA3609DF8070000F00CFF61
:1068F000DAE7D4F8104454B90C4B0D480D49C01ACE
:10690000C008000440F0020000F05EF8CCE7236805
:1069100020469B689847E3681C68ECE7002583E7FE
:10692000D42C002084C60200E02C002098C602006F
:10693000C0C6020054C702002DE9F34704460E46C4
:10694000924601A9012218469946FFF70BFE1C4FFB
:1069500010B3019D4FF00008AA1CC84508EB0201C6
:1069600025D11848002101F0C7F880F31000000479
:1069700040EA1440E4006B1C04F03804DBB2EDB2D2
:1069800044F0010407EB8303033544EA881444EA26
:106990008624D86047F825403B781BB1FFF7C8FE36
:1069A0000028FBD1FFF7B8FE02B0BDE8F087C9B2FE
:1069B00007EB81015AF82830CB6008F10108CCE7D9
:1069C000D42C0020F030002000231A46FFF7B4BF7B
:1069D00007B50123019201AAFFF7AEFF03B05DF8EE
:1069E00004FB07B5CDE9002302236A46FFF7A4FFA5
:1069F00003B05DF804FB000030B50F4CD4F8102450
:106A000003460020114631B9D96808714AB9C4F863
:106A100010340A6030BDC9680D79854206D0096816
:106A2000F1E7D26814680C601360F3E701300A28BC
:106A3000E8D14FF0FF30EDE7D42C002038B5084BFB
:106A40000125D3F810441D7004B938BDE3685D71A9
:106A5000236820465B689847E3681C68F4E700BF3A
:106A6000D42C002030B5C38885B004460D4633B120
:106A7000144A00921449154A284601F0EAF8217A8E
:106A800005291DD0637A4BB1A088FFF72FFE104B6C
:106A9000104953F82020284601F0DBF8227A0E4BEB
:106AA000A08853F8222003920021FFF703FE039AE7
:106AB0000A490346284605B0BDE8304001F0C9B890
:106AC00005B030BD98C7020080C7020078C7020039
:106AD00004C802009DC7020028C80200A0C7020027
:106AE00007B503460846197A052911D05B7A2BB100
:106AF000094A0A49019001F0ACF80198084901904F
:106B000001F0A7F8019803B05DF804EB01F096B826
:106B1000002AF8D0F2E700BF98C702009DC7020024
:106B2000EDCE02002DE9F04385B01F460C9D0023F9
:106B300095F80C902B7306460C469046294638462D
:106B4000FFF790FFB8F1060F09D8DFE808F004124C
:106B5000181F283340003146284601F07AF80022F9
:106B600029463846FFF7BCFF85F80C9005B0BDE814
:106B7000F08322683146284601F06BF8EFE7D4E94C
:106B800000233146284601F064F8E8E7A368009343
:106B90003146D4E90023284601F05BF8DFE7E368DB
:106BA0000193A36800933146D4E90023284601F0FD
:106BB00050F8D4E723690293E3680193A368009334
:106BC0003146D4E90023284601F043F8C7E763695A
:106BD000039323690293E3680193A368009331460A
:106BE000D4E90023284601F034F8B8E708292DE954
:106BF000F74F80460E4617461C463CD8002593F8B2
:106C00000C901D7319461046FFF72CFFDFF888A083
:106C1000DFF888B0AE4231D918F805205946204631
:106C200001F017F80135082DF4D11949194DDFF895
:106C300070A0204601F00DF84FF0000B5E4522D900
:106C400018F80B207E2A05D81046019205F0E6F8C8
:106C5000019A00B92E225146204600F0FAFF0BF1AE
:106C6000010BBBF1080FE9D1012221463846FFF79D
:106C700037FF84F80C9003B0BDE8F08F51462046F2
:106C800000F0E7FFCEE72946204600F0E2FFE6E706
:106C9000B4C70200B2C70200B0C70200AAC7020010
:106CA000B6C70200C30710B507D4F023054A400851
:106CB000145C23401943115410BD0901C9B20F23BC
:106CC000F4E700BFA031002030B5094B1C78094B18
:106CD000196800239C4202DC0022104630BD11F8E6
:106CE0003350854201EBC302F7D00133F2E700BF16
:106CF0008C310020B031002013B504460191FFF71C
:106D0000E3FF38B143682BB10199204602B0BDE8DA
:106D10001040184702B010BD034B04481968002208
:106D2000490800F087BA00BF90310020E02A002017
:106D300010B5C0B2FFF7C8FF0446007801F06EFF3F
:106D400063785A1E53425341834208D1044BD3E91E
:106D50000023134303D1BDE81040FFF7DDBF10BD92
:106D60009831002037B54308374AD35CC2074CBF7F
:106D70001B0903F00F0304460D46042B25D8DFE85A
:106D800003F003262F3C4000F9B10121FFF78AFFF1
:106D900000230DF107008DF8073000F091FC012071
:106DA000A4F12003C4F12001284A20FA01F100FADD
:106DB00003F30B43A040D2E9004120430B43C2E957
:106DC00000039DF8070000F09FFC03B030BD0029D0
:106DD00018BF0221204603B0BDE83040FFF762BF74
:106DE00049B10321FFF75EFF0121204603B0BDE852
:106DF0003040FFF781BF0121ECE70029E5D10421F4
:106E0000E8E709B10321E5E7FFF74CFF29462046F3
:106E1000FFF772FF0DF107008DF8075000F050FCEE
:106E20000120A4F12003C4F12001084A20FA01F155
:106E300000FA03F30B43A040D2E9004124EA00002A
:106E400021EA0303BBE700BFA031002098310020F6
:106E50002DE9F041124E134F00243378A34208DC91
:106E6000114BD3E90023134318D0BDE8F041FFF7DD
:106E700053BF3D6805EBC40815F8340001F0CEFEA1
:106E800098F801305A1E53425341181A4142414169
:106E900015F83400FFF766FF0134DEE7BDE8F08146
:106EA0008C310020B031002098310020092AF7B53C
:106EB00005460C4616463ED901F0E8FDE8B11F4BE9
:106EC0001F481D601F4B204F1C70204B00211022BB
:106ED0001E6005F003F81E4B00200021C3E90001ED
:106EE000013CE4B20326FF2C0DD11A4A1A480021B6
:106EF00003B0BDE8F04000F08BB901F089FD002837
:106F0000DDD003B0F0BD9DF8063015F834008DF8E3
:106F1000046005EBC40223F007038DF8063001A9D5
:106F200093788DF805303A4601F0BAFD013CE4B2A1
:106F30000028D8D0E5E70720E3E700BFB031002004
:106F4000A03100208C310020316D020090310020F2
:106F500098310020516E020048C8020070B5084DFB
:106F6000084E00242B789C4201D3002070BD33686A
:106F7000012113F8340001F00BFE0134F2E700BFE9
:106F80008C310020B03100201FB50021039001AAF0
:106F900044F20100CDE9011100F004F805B05DF8FC
:106FA00004FB000038B572B6FFF748FDFFF7C0FBE1
:106FB0000028FBD1104B114C114D1249E41AE40882
:106FC000240444F00100FFF7FFFCD5F8F030DB07A4
:106FD00000D500BE0C4944F00200FFF7F5FCBFF3FA
:106FE0004F8FEA68094B02F4E0621343EB60BFF392
:106FF0004F8F00BFFDE700BF98C60200C0C6020069
:1070000000ED00E04CC8020058C802000400FA0578
:1070100049B152B1531E1A4007D18260016083808A
:10702000C260104670470E2070470920704710B5A7
:107030008468C2688388121B934208D3C2681340D5
:107040000268D154C3680133C360002010BD04201E
:10705000FCE78268C3689A420AD08268838813403A
:107060000268D35C0B708368013383600020704733
:107070000520704710B5D0E90243D1E90202A042D1
:1070800072EB03032CBF0120002010BD08B50A4895
:1070900000F06DFC094AD2E90031C018084BD3E971
:1070A000002341F10001904271EB030303D210F180
:1070B000807041F1000108BD002B0020B831002094
:1070C0003032002037B505460C460A4801A900F0C9
:1070D00082FC60B10570446001A9064800F0A5FC7F
:1070E00018B1054800F048FC002003B030BD042072
:1070F000FBE700BF1C320020002B0020294B73B59A
:107100001E7804461EB90026304602B070BD002825
:10711000F9D0FFF7BBFFD4E902239042994139D35C
:1071200000230DF107008DF8073000F0C9FA23693C
:107130002BB94FF0FF324FF0FF33C4E902239DF823
:10714000070000F0E1FAD4E90530984700250DF179
:1071500007008DF8075000F0B3FA2369C3B1D4E9F2
:107160000212B2F1FF3F08BFB1F1FF3F05D05B183B
:1071700042F10002C4E9023235469DF8070000F0F2
:10718000C3FA002DBFD00848214601F03AF8BBE70A
:107190001D46F2E7B3F1FF3F08BFB2F1FF3FB2D0A7
:1071A000F1E700BFC031002074C8020013B5114BD5
:1071B00011491868019008231048582200F0F8FB84
:1071C000044698B90E4A0F4801A900F0C1FA0446D6
:1071D00060B90C48012100F0ADFB01230A4A0948BF
:1071E000194600F00FFB094B01221A70204602B02D
:1071F00010BD00BF70C80200C43100201C32002046
:10720000ED720200002B0020FFFF7F00C031002044
:1072100030B56AB103684FF0FF344FF0FF355A6163
:107220004A1E5142C3E9024551411961002030BD57
:107230000720FCE7F7B5044600250DF107001746C7
:107240000E468DF8075000F03BFAD4E90223B3F163
:10725000FF3F08BFB2F1FF3F07D1FFF717FF30181C
:1072600041F10001C4E9020101259DF8070000F089
:107270004BFA55B12369A76103B12661214600206D
:1072800003B0BDE8F040FFF71DBF284603B0F0BDD6
:1072900037B5054600240DF107008DF8074000F0D2
:1072A0000FFAD5E90223B3F1FF3F08BFB2F1FF3F68
:1072B0001FBF4FF0FF324FF0FF33C5E90223012417
:1072C0009DF8070000F020FA34B12946012003B0F0
:1072D000BDE83040FFF7F6BE204603B030BD0000E9
:1072E000014800F044BB00BF002B00202DE9F7430C
:1072F000064600F027FB40B1624AD2E9003113F1A3
:10730000807341F10001C2E900310021304600F0F4
:1073100028FB38B15C4C236823B12068FFF7EEFEF0
:10732000002323600121304600F01BFB20B1FFF752
:10733000ADFE564BC3E900015548534C01A900F07E
:1073400084FB4FF0FF384FF0FF39A0B9DFF84481DC
:107350004D4D404600F06BFF002800F08580D0E9DD
:107360000223B3F1FF3F08BFB2F1FF3F32D14046E5
:1073700000F057FFEDE70378012B20D0022B08D156
:10738000444D284600F04DFF002877D0C0E902891F
:10739000F7E75BB94168D1E90223B3F1FF3F08BFCA
:1073A000B2F1FF3F02D03B4800F02BFF01A9384863
:1073B00000F076FB01A9364800F047FBC5E74168BD
:1073C0002368994202D100232360EFE7314800F09F
:1073D00031FFEBE7296891B12968D1E902018242C6
:1073E0008B412FD22B68D3E90223B3F1FF3F08BFB3
:1073F000B2F1FF3F03D02968404600F002FF40464B
:1074000000F00FFFD0E902490746FFF73FFE201AC0
:1074100069EB0109012879F1000318DBB0F5350F9C
:1074200013D3FFF75DFF1C4A02441C484FF4960338
:10743000002100F007FA90B92B6813B9304600F02C
:10744000D9F92F6003B0BDE8F0832246EDE7134879
:10745000002100F07CFA3846FFF750FE01E00D28CD
:10746000F9D000232B6074E7074B1B68002BE9D190
:10747000304603B0BDE8F04300F0C0B9084B01222C
:107480001A7093E7B83100203832002030320020E3
:107490001C32002074C80200FFFFB400002B002043
:1074A000C03100200648074A03780749D35C01220F
:1074B00013B1043002F0C2B80C3001F085BE00BF39
:1074C000082B0020AC320020643200200648074A16
:1074D00003780749D35C012213B1043002F060B88D
:1074E0000C3001F021BE00BF082B0020AC32002080
:1074F0006532002037B50578012D0DD0022D30D032
:1075000075B91F491F48FFF7A4FD002834D103B007
:10751000BDE83040FFF7DABF037A1BB9FFF7C2FFBF
:1075200003B030BD4368184C19782046FFF77FFD43
:1075300080B18DF800500190144B68461B68984745
:10754000A168E368A2885B1A9A42E7D2104B012235
:107550001A70E5E7A268E3689A42F1D08DF800005E
:10756000EAE7C3688DF800500193FFF79BFF074BD4
:1075700068461B689847D3E703238DF80030F6E789
:107580006532002054320020403200203C3200207E
:1075900050320020F0B51F46234B89B004461A60D4
:1075A0000D4600293DD08A8820480968FFF730FD44
:1075B000002834D1AA89A9681D48FFF729FD0028B1
:1075C0002DD11C4E0FCE6D460FC596E80F0085E8F5
:1075D0000F0063690693237C174A18488DF81C70C6
:1075E000003B18BF01238DF81430637C002B14BFBF
:1075F0000E2300238DF81530E3680293A3680393EC
:107600002368019369466368009301F037F930B944
:107610000B4B18702368013301D0FFF743FF09B00B
:10762000F0BD0720FBE700BF3C32002040320020C5
:107630005432002080C80200F5740200082B00209C
:107640005032002070B5084D014608482E78FFF7EB
:1076500000FD044636B100232B70FFF723FF08B16D
:10766000FFF792FC204670BD5032002040320020CF
:1076700010B501460E48FFF7DAFC0446A8B90D48DC
:107680000D4A0378D35C63B1043001F07DFF60B92B
:107690000A490748FFF7DDFC38B9BDE81040FFF79D
:1076A00015BF0C3001F034FDF1E7204610BD00BFDE
:1076B00054320020082B0020AC320020653200201C
:1076C00070B5EFF3108672B60C4A946801239CB92A
:1076D00093600B4B0B4DD3F8801029401160C3F819
:1076E0008050D3F8841051604FF0FF32C3F88420EB
:1076F000047006B962B670BD0370FAE76832002004
:1077000000E100E0FC06FFBD084B9A6810B55AB1D5
:1077100050B9EFF3108172B6054A1C6814605C68BA
:107720005460986001B962B610BD00BF6832002095
:1077300000E100E0435882B03BB10023435043587E
:107740000193019B012002B070471846FBE700003F
:10775000F8B5204B4479204E43F824201F4A204B93
:1077600006EBC4049B1A2279DB081B0432B143F0F8
:1077700002001C49FFF728F90820F8BD02680C88B0
:10778000C2F8084590F904508A7804795201002D16
:10779000D2B219DB14494F1987F8002301226D0971
:1077A00004F01F0402FA04F441F82540427906EB84
:1077B000C201012446F832000C7143F003000B496A
:1077C000FFF702F90020D8E7094904F00F040A5531
:1077D000ECE700BF7C3200207432002098C6020023
:1077E000D0C60200A0C8020000E100E0C2C802004A
:1077F00014ED00E0036801221A607047036801225B
:107800005A60704773B501F15005AD000068ADB224
:107810004FF480348C400026C0F80843C0F8484339
:10782000465101F5A8714559019522F07F42019D0D
:1078300040F82120C0F844430BB1C0F8044302B023
:1078400070BD00002DE9F74F0D4622F07F4402681D
:107850004FF4803705F150068F408046B60002EBAA
:107860008500C2F84873B6B2C2F80873D2F804159E
:1078700099464FF0000BD0F84035C0F8401542F85B
:1078800006B05B1A9259009223F07F43012B009AB5
:107890004FEA850A0CD1264B4FF4806043F0010378
:1078A0009847D8F8003043F806B09B590193019BE4
:1078B000D8F80010D1F80465C1F84473A31B23F075
:1078C0007F43012B1CD11A4B05F5A875013443F0F9
:1078D000010341F825404FF480609847D8F8003004
:1078E000D3F804359E4209D1D8F800300020C3F8FF
:1078F0004473C3F8047303B0BDE8F08F0D20FAE7BA
:107900008A44C9F1FF13CAF84045D1F80405221A88
:10791000013A22F07F4203F57F439342EED3002ADF
:10792000E2D10134CAF84045D1F804359842DAE78B
:10793000E0C8020003680222C3F8442309B1C3F877
:107940000423704700684FF48271FFF7F3BE4FF4D1
:10795000803303FA01F10368C3F84813C3F808132E
:10796000704750318900006889B2FFF7E3BE0368B1
:10797000D3F804057047000090F90430002B09DBB0
:107980005A09012103F01F0301FA03F340320249AF
:1079900041F82230704700BF00E100E0024B034A8B
:1079A0001B681068184700BF7C320020743200202A
:1079B00010B561B1B2FBF3F403FB1424A4B244B9D3
:1079C000C0E9001484608281C381204610BD0E206E
:1079D000FCE70920FAE737B550E8013F9DB2C489BA
:1079E00025448489A54228BF2D1B0489A54202BFD6
:1079F000BFF32F8F002207E0C5EA030540E80154DA
:107A0000002CE9D14FF001028DF803200193019A77
:107A10000A609DF8031001F0FF0321B1006810FA1D
:107A200082F003B030BD1846FBE70A884B889A42C3
:107A300009D150E8012FC2EA024240E80123002B9D
:107A4000F7D1012070470020704737B550E8023F5A
:107A50001FFAA3F5C488A54202BFBFF32F8F0022EF
:107A60000DE0C48925448489A54228BF2D1BC3EAA3
:107A7000054540E80254002CE8D14FF001028DF892
:107A800003200193019A0A609DF8031001F0FF039F
:107A900021B1006800EB124003B030BD1846FBE78F
:107AA0000A884B889A4209D150E8022FC2EA224242
:107AB00040E80223002BF7D10120704700207047D7
:107AC00001F01F024B090121914000EB830000F0FF
:107AD0001EB801F01F0301229A404B0900EB8300FE
:107AE000D14300F02CB84B0901F01F0150F82300DE
:107AF000C84000F00100704710B5034653E8000F7E
:107B00000A4643E8002494F0000FF7D110BD10B5E9
:107B1000034653E8002F42EA010043E8000494F0D2
:107B2000000FF6D110BD10B5034653E8000F00EA70
:107B3000010243E8002494F0000FF6D110BD10B507
:107B4000034653E8002F02EA010043E8000494F0E2
:107B5000000FF6D110BD10B5034653E8002F02EB1D
:107B6000010043E8000494F0000FF6D110BD10B5F9
:107B7000034653E8002FA2EB010043E8000494F011
:107B8000000FF6D110BD0121FFF7C1BF0021FFF7A3
:107B9000CABF10B590B1D0E9012301689B1ADBB2CE
:107BA0000A60013BDBB2FF2B026802D1002010719A
:107BB00010BD11684C1C14600B70F2E70E20F7E743
:107BC00037B5054600240DF107008DF80740FFF793
:107BD00077FD2A686B68116899420ED9481E1060BB
:107BE00011F8013CEC68298A01FB0344AB68117968
:107BF0001B1ADBB2994238BF13719DF80700FFF7DB
:107C000083FD204603B030BD37B5054600230DF196
:107C100007000C468DF80730FFF752FD2A681368FD
:107C2000591C1160E968641A298AB4FBF1F41C70CC
:107C30009DF80700FFF768FD03B030BD826810B5FE
:107C400004462AB143690168006998470023A3608C
:107C500010BD0EB403B5039921B104AB01AA019381
:107C600000F076F802B05DF804EB03B070470A2923
:107C700038B504460D4602D10D21FFF7F8FFA36881
:107C80002268591CA160D554D4E901329A4204D328
:107C90002046BDE83840FFF7D1BF38BD2DE9F84F89
:107CA0009846DDE90A43154682460F460A464FF0DC
:107CB0000109AA420FD2C14538BFC14613F0010BDA
:107CC00001D16CB900240126B8F1010F1BD908F1CC
:107CD000FF386E43F8E709F10109B2FBF5F2E8E776
:107CE0009B070ED5B8F1000F0CBF30262026A1450A
:107CF000E9D2013C31465046FFF7B9FF002CF6D1DE
:107D0000E0E72026F3E7B7FBF6F39D42E1D9DFF881
:107D10003C80B7FBF6F3504618F8031006FB1377C8
:107D2000FFF7A5FF3346AB42B6FBF5F6F1D2BBF148
:107D3000000F02D00CB1A14501D3BDE8F88F20217E
:107D40005046013CFFF793FFF4E700BFE6C802008E
:107D50002DE9F74F054617468846002900F03E8179
:107D600018F8011B49B92B7B002B00F037812846FE
:107D700003B0BDE8F04FFFF761BF252940F0B780A1
:107D8000002698F800302D2B424608F1010823D038
:107D9000302B24D02B2B25D000242A2B02F10101DB
:107DA00023D13B681A1D1B683A601C440A461378AD
:107DB0002E2B26D101324FF0000A104610F8011B7D
:107DC000A1F1300CBCF1090F1DD80A2303FB0A13E3
:107DD000A3F1300A0246F0E746F00106D1E746F08B
:107DE0000206CEE746F00406CBE711F8013CA3F10A
:107DF00030000928DBD80A2202FB0434303C0A4652
:107E0000CBE74FF0000A12F8011B01F0FB006828D5
:107E10009046F8D0782909D86F290CD8632962D008
:107E200022D8252963D0582900F0888098F800309E
:107E3000002B95D197E770390829F7D801A353F89B
:107E400021F000BFB77F02002D7E02002D7E0200D0
:107E50004D7F02002D7E02002B7F02002D7E02004E
:107E60002D7E02003D7F0200642901D06929DDD109
:107E70003A68D2F80090111D89EAE9723960A2EBE4
:107E8000E9724FF0010B092A35DCD34538BFD346E0
:107E90002CB1B9F1000F01DB720700D5013CB3072B
:107EA00002D5BAF1000F03D0F00701D44CBB002477
:107EB000B9F1000F2DDAC9F100092D212846FFF78D
:107EC000D6FE06F00302022A04D1BAF1000F01D156
:107ED0001CBB0024CDE9004653460A2249462846E9
:107EE000FFF7DCFEA2E73B681A1D19783A602846C6
:107EF000FFF7BDFE9AE70A230BF1010BB2FBF3F289
:107F0000C1E7A345D4D220212846013CFFF7AFFEAC
:107F1000CCE77107D5D52B21D0E7A345DAD23021A4
:107F20002846013CFFF7A3FED2E73968CDE90046B9
:107F30000A1D3A6053460A220968D0E739680A1DCB
:107F40003A60CDE9004653461022F5E73B681A1D1A
:107F50003A6016F00106D3F8009024D1B9F1000F71
:107F600003D0484604F00FF80646B4421DD809F184
:107F7000FF3919F8011F00293FF458AF2846FFF7D1
:107F800076FEF6E728460136FFF771FE19F806106F
:107F90000029F7D1A642BFF449AF20212846013C71
:107FA000FFF765FEF6E70026F0E720212846013CB2
:107FB000FFF75DFED9E73B681A1D3A60302128467D
:107FC0001C68FFF754FE78212846FFF750FE002278
:107FD0000823CDE900322146102280E703B0BDE836
:107FE000F08F00BF2DE9F84FB0F806A04579D2F820
:107FF00000B09DF828900AFB05F5043D88460BEB80
:108000000301A94203F1040488BFA5EB030BB4FBF1
:10801000FAF607460AFB1644C2F800B04EB9AAEBBE
:1080200004055D4528BF5D46BBF1000F04D1BDE8E6
:10803000F88F3F68013EF1E7043408EB06003C444A
:108040002A46B9F1000F0DD02146ABEB050B03F02A
:108050001CFFDA452E443F6855464FF0000428BF08
:108060005D46E1E701462046EFE7FFF792BDF8B530
:1080700046790146721E0546002393422D6803D3BC
:108080000024A64202D8F8BD0133F6E70F6828465F
:10809000FFF7BAFD01343946F3E72DE9F843068AC4
:1080A000CD1C0746FFF78CFD043E35440446B5FB66
:1080B000F6F5F0B14FF48073EDB28380C680013DD8
:1080C000076081464FF00008A84512D23846FFF7F6
:1080D00077FD064648B163790133637108F1010801
:1080E000C9F8000007608146EEE72046FFF7BFFFB2
:1080F00034462046BDE8F88301210430FFF72BBD4C
:1081000010B5012104460430FFF731FDC0B220B99B
:108110002046BDE81040FFF7AABF10BD1FB503926F
:108120000022009203AAFFF75DFF05B05DF804FB93
:108130001FB503920122009203AAFFF753FF05B077
:108140005DF804FB41DF7047064B10B500241C703E
:10815000054B1C60BFF35F8F0449054800F03BF8F6
:10816000204610BD883200208C32002000C9020059
:108170008032002007B500230DF107008DF807308D
:10818000FFF79EFAF1EE103A23F09F03E1EE103A6A
:10819000BFF35F8F0A4B4022C3F884219DF807008C
:1081A000FFF7B2FA03F0B2FB20B103B05DF804EBC5
:1081B000FFF7C8BF20BF40BF20BF03B05DF804FB7E
:1081C00000E100E0836800225A60C3E904229A605B
:1081D000DA601A6070470B684A684360934208BFD0
:1081E0000023016008BF43607047436843B10268E1
:1081F000916852680B449342436004BF002343607C
:10820000704770B5446806460D46206818B1B368DB
:108210002946984718B923682B60256070BD2468EB
:10822000F3E74368186808B102681A60704743684A
:10823000186870474368186800B97047884203D1CE
:1082400002681A600120704703460068F4E70000E6
:1082500010B50D49A1F59472914201D800200FE0AC
:108260008C1AE30F03EBE4035B1002EBC30452F838
:108270003330834205D802D204F10802ECE760688B
:1082800010BD2146E8E700BF0CCE020008B5FFF79D
:10829000DFFF024B002808BF184608BDCFCC020004
:1082A00010B50446C0B2FFF7E3F9204610BD4FF009
:1082B0008053D3F83001421C04BF4FF0704393F851
:1082C000E00F831F58425841704700004FF0704341
:1082D00093F8E02F062A09D1D3F8E83FC3F303133C
:1082E000033B042B02D8024AD05C70470020704741
:1082F0001BCE0200024AD2F80034002BFBD070479C
:1083000000E0014010B5FFF7D2FF40B14FF08053BD
:10831000944AD3F82433C3F30423C2F84035FFF75B
:10832000D5FF10B1904B914A5A67FFF7C0FF48B193
:108330004FF080534FF08042D3F84432C3F34233BE
:10834000C2F83C35FFF7C2FF30B1894AD2F8FC30A1
:1083500023F08073C2F8FC30FFF7A9FF40B14FF063
:1083600080430022C3F80C21C3F81021C3F838253C
:10837000FFF7ACFF20B14FF080430322C3F8A025E4
:10838000FFF7A4FF60B17B4B0522C3F81026012242
:10839000C3F888260022C3F818263F22C3F8142603
:1083A0004FF08053D3F83021511C09BF4FF0704378
:1083B000D3F8343193F8E02FD3F8E83F08BFC3F384
:1083C0000313062A4DD1033B042B03D86A4AD35C1E
:1083D000002B46D04FF08052684BD2F80414C3F8FB
:1083E0002015D2F80814C3F82415D2F80C14C3F8D9
:1083F0002815D2F81014C3F82C15D2F81414C3F8A9
:108400003015D2F81814C3F83415D2F81C14C3F878
:108410004015D2F82014C3F84415D2F82414C3F838
:108420004815D2F82814C3F84C15D2F82C14C3F808
:108430005015D2F83014C3F85415D2F83414C3F8D8
:108440006015D2F83814C3F86415D2F83C14C3F898
:108450006815D2F84014C3F86C15D2F84424C3F858
:108460007025FFF724FF48B14FF080534FF0804252
:10847000D3F8583203F04F03C2F8E43EFFF717FF7A
:1084800048B14FF08043D3F80024D20744BF6FF0C7
:108490000102C3F800244FF08053D3F83021062A9C
:1084A0000ED1D3F83431033B042B02D8344AD35CC9
:1084B00033B1344AD2F83C3743F48063C2F83C37D6
:1084C0002B4AD2F8883043F47003C2F88830BFF3E7
:1084D0004F8FBFF36F8F4FF08053D3F83021062AB0
:1084E0000FD1D3F83431033B042B02D8264AD35C96
:1084F0003BB14FF01023D3F808224FF08043C3F86C
:1085000058254FF01023D3F80022002A03DBD3F8BC
:108510000432002B22DA1D4901234FF01020C1F84C
:1085200004351524FFF7E6FEC0F80042FFF7E2FE2F
:10853000C0F80442FFF7DEFE0023C1F80435FFF760
:10854000D9FEBFF34F8F0A49114BCA6802F4E062AB
:108550001343CB60BFF34F8F00BFFDE70D4B0E4AB7
:108560001A6010BD0030014000C007400DF0ADBAE8
:1085700000ED00E0005000400CCE020000C00040C2
:1085800011CE02000010004016CE020000E00140B3
:108590000400FA051C2B00200090D003054A4FF080
:1085A000A043105CD3F8043523FA00F0C04300F078
:1085B0000100704724CE0200044B1A5C0123934053
:1085C0004FF0A042C2F80C35704700BF24CE020025
:1085D000044B1A5C012393404FF0A042C2F80835C7
:1085E000704700BF24CE020008B50020FFF7F0FF5F
:1085F0000120FFF7EDFF0220FFF7EAFFBDE808408A
:108600000320FFF7E5BF08B50020FFF7D5FF0120E5
:10861000FFF7D2FF0220FFF7CFFFBDE8084003209D
:10862000FFF7CABF074A4FF0A041105CD1F80435EC
:108630000122824022EA03001340C1F80805C1F874
:108640000C35704724CE0200054A4FF0A043105C61
:10865000D3F8103523FA00F0C04300F00100704752
:1086600020CE02000D2809D00E2809D00F2809D0ED
:1086700010280CBF03204FF0FF30704700207047D8
:108680000120704702207047014B185C704700BF03
:1086900020CE0200C20708B501460CD54FF0A0431A
:1086A0000322C3F84427C3F84827C3F84C27C3F86C
:1086B0005027FFF799FF8B070AD54FF0A0430C22F4
:1086C000C3F83427C3F83827C3F83C27C3F840273A
:1086D00008BD000038B5074C051E04F1080318BF9B
:1086E0001C4623682BB11A6822605B6828469847AD
:1086F000F7E738BD9832002020B9054B01225A70A7
:10870000FFF7E8BF012802D1014A9070F8E77047EF
:108710009032002020B9034B01225A70FFF7DABFD4
:10872000704700BF9032002038B50E4C2378B3B9A3
:108730000D486360A3602361E36000F0E7F805463D
:1087400003F0E4F808B900F0EDF801232370074BBB
:10875000D3F800340BB10123A370284638BD85251A
:10876000F5E700BF90320020F986020000000140CA
:1087700037B50D4C00230DF107008DF80730FEF7DB
:108780009FFFE368013BE360E36833B9074BD3F82D
:10879000005415B900F0D8F8A5709DF80700FEF751
:1087A000B3FF03B030BD00BF903200200000014095
:1087B000012813B50CD0032820D038B9134B01225F
:1087C000C3F88020BFF34F8FBFF36F8F02B010BD8F
:1087D0000F4C00230DF107008DF80730FEF770FFF6
:1087E00023780BB9FFF7A0FFE3689DF8070001337A
:1087F000E3600123A370FEF787FFE7E700F092F83C
:1088000002B0BDE81040FFF7B3BF00BF00E100E0D9
:10881000903200201FB503788DF800304368019333
:1088200083688DF80830C368054A0393054B684692
:1088300053F8213052F82110984705B05DF804FB39
:10884000A4320020A83200201FB503788DF8003034
:108850004368019383688DF80830C368054A039321
:10886000054B684653F8213052F82110984705B05F
:108870005DF804FBA4320020A8320020F0B5194BAB
:1088800090F800C091F81DE043F82C20164B1646D6
:108890000A6943F82C20154B03F80CE00C460746F8
:1088A0000FCC89B06D460FC594E80F0085E80F0026
:1088B000CDF810C0BEF1000F09D0002E0C4A694659
:1088C00008BF3246381D00F09DFD09B0F0BD002EF6
:1088D000084A694608BF324607F10C0000F064FB05
:1088E000F3E700BFA8320020A4320020AC32002001
:1088F000158802004988020000F18040002382B000
:10890000036003680193019B02B07047044A137926
:1089100023B9012110609180184670478520704767
:10892000B0320020074B1A68D20704D4C02283F863
:10893000002301221A604FF080430122C3F818255A
:10894000704700BF00E100E04FF0804208B502230D
:10895000C2F808334FF48270FFF7CEFF0123D360D3
:10896000D2F81834DB03FBD408BD00004FF080417F
:1089700010B5D1F8003163B14FF48070FFF7BCFF40
:108980000D4B58790122C1F8082310B95A711B68A0
:1089900098474FF08042D2F8043163B14FF48270AF
:1089A000FFF7AAFF0223C2F80833034BBDE81040CB
:1089B0001B680120184710BDB032002000F1804034
:1089C00000F5C040002382B0036003680193019B5F
:1089D00002B07047800000F1A040D0F8002722F4D8
:1089E0004032C0F80027D0F8003743EA0141C0F810
:1089F00000177047054B4FF0FF32072843F820203F
:108A000084BFC01880F84820704700BFB8320020EB
:108A100010B51A4C94F858306BBB4FF0FF3222FA65
:108A200003F1C90748BFE11803F1010348BF81F80A
:108A30003020202BF3D10021C8B20131FFF7DAFF3B
:108A40000C29F9D1042200210D4803F047FA0D4BFF
:108A5000C02283F8062340221A604FF4BE70FFF74D
:108A6000ADFF094B4FF00042C3F80423012384F803
:108A70005830002010BD0820FCE700BFB8320020AD
:108A80000C33002000E100E000600040034B93F84D
:108A90005800003818BF0120704700BFB8320020CE
:108AA000F0B5394E331893F93030002B69DA8D78F0
:108AB000C5F34005002D0BBF082300230C24082418
:108AC000A34201D10420F0BD56F82370013743D1F1
:108AD00037185CB246F8232087F8304015B9F218F1
:108AE00082F848008A78550716D4D70736D5820011
:108AF00002F1A042D2F8005725F00205C2F8005753
:108B0000224FC50800F0070C012202FA0CF217F8F8
:108B100005C042EA0C027A558A780D7812F00202FA
:108B200025D09B0003F1804303F5C0430002D3F836
:108B3000102522F4473222F44072C3F810252D0488
:108B4000D3F8102500F4F85005F4403528431043BD
:108B5000C3F810050020B6E70133B1E74D7800F502
:108B6000E0724FF0A047AD0047F82250C8E7083C3C
:108B700046FA84F494F8500040EA851584F8505081
:108B8000E8E708209FE700BFB83200200C33002040
:108B900038B5204C251895F93020072A18DD083AF9
:108BA00044FA82F494F850309B09032B0BD14FF018
:108BB000A043D3F81015C14001F001010231BDE816
:108BC0003840FFF707BF012B0CBF02210321F6E756
:108BD000D3B2072B1DD8930003F1804303F5C043A4
:108BE000D3F8100540F00100C3F8100502F1400071
:108BF00040B2800080B2FFF7E1FE51B195F930300C
:108C000054F823302BB1012303FA02F2024BC3F8CC
:108C1000042338BDB8320020006000404FF0A0436C
:108C2000D3F8103523FA00F000F00100704700007F
:108C30002DE9F74F00244E4D01944FF4807201212D
:108C400002F1804303F5C04390B21B68012B06D1AB
:108C5000D5F804330B4202D0FFF7B0FE0C430432C8
:108C6000B2F5907F4FEA4101EAD1414BD3F87C3114
:108C7000012B0CD14FF4BE70FFF7A0FE4FF0A043C4
:108C800044F00044D3F820250192C3F82025E3B234
:108C9000D3B1384F00250126344210D0AB0003F188
:108CA000804303F5C043D3F81005D3F8101557F8E7
:108CB000253023B1C1F30141C0F3042098470135A9
:108CC000082D4FEA4606E7D1002C48DA294D4FF02F
:108CD000A048294E4FF00009012716F9013B5A1C04
:108CE00031D0C3F3C20202A90A44DCB212F8042C48
:108CF00003F03F0A03F0070307FA03F31A4222D0F6
:108D00000AF5E073504658F82330C3F3014BBBF12A
:108D1000020F0CBF03210221FFF75CFE07FA0AF3E2
:108D2000C8F8203505EB0A0393F9303055F82330A5
:108D30004BB1A109032904D0BBF1020F12D10129C3
:108D400001D15046984709F10109B9F1040FC4D186
:108D5000D8F820350193C8F82035002BB9D103B0DD
:108D6000BDE8F08FBBF1030FEDD10229E8E700BFAA
:108D700000600040B832002008330020014B1B681F
:108D8000184700BF143300200E4B984237B50C46ED
:108D900002D0002003B030BD00230DF107008DF894
:108DA0000730FEF78DFC084B1D7915B901221C60B8
:108DB0001A719DF80700FEF7A7FC002DE9D01120DD
:108DC000E8E700BF00200040143300200023435098
:108DD00082B043580193019B02B070470A4610B518
:108DE0004FF48E71FFF7F2FF136A9168C95C136A42
:108DF00001331362C0F81C1510BD024608B50068A7
:108E00004FF49271FFF7E2FF10684FF48471FFF79F
:108E1000DDFF136801221A6008BD8B690A4610B590
:108E20004FF4847123B9FFF7D1FFD0F8183510BD86
:108E3000FFF7CCFF536AD168D0F81805C854536ABD
:108E400001335362F3E700001FB501238DF80030B2
:108E5000044BCDE90110D3E900126846904705B0F4
:108E60005DF804FB1C33002030B54D4DD5F80433BC
:108E70009A0585B051D5D5F82431002B4DD04FF44B
:108E800092712846FFF7A2FF4FF40173C5F808332B
:108E9000444B93F829200AB901226A604049022212
:108EA0008DF80020D1F88024C1F8802403929A69BB
:108EB0000292DA6801920022C3E906226846D3E9E9
:108EC000001290473648D0F81C315BB1354A5169E1
:108ED000136A99424DD992F82830002B49D1114696
:108EE000FFF77CFF2E48D0F84431002B56D04FF4CA
:108EF000A271FFF76BFF2B4B93F829200AB10122D7
:108F000002609A69002A49D0586AD96800229A6199
:108F100005B0BDE83040FFF797BFD5F804335B07D5
:108F2000D0D5D5F80831002BCCD01E4C1C4821469A
:108F3000FFF773FF636AA2699A42C3D1E369E168EC
:108F40004BB1A3612369E3600023606AE36163625C
:108F5000FFF77AFFB6E794F829300BB901236B606D
:108F60000F4B4FF40172C3F808230023606AA3611A
:108F7000EEE70B484FF48E71FFF728FF5369002B83
:108F8000B0D051690291002391688DF800300191B1
:108F900053616846D2E900139847A3E705B030BD96
:108FA000002000401C3300202DE9F843534D90F879
:108FB00004802C2303FB0853064693F82A300C4602
:108FC0009146002B40F096804D490068FFF7DCFE8B
:108FD0000746002840F0908022683068511C0BD072
:108FE0004FF0A04101239340C1F8083502F5E0732A
:108FF0004FF0030C41F823C061684B1C1FBF01F503
:10900000E0734FF0A04C4FF0000E4CF823E0A36942
:10901000C0F8243594F814C0637DBCF1010F4CEA0C
:109020000303C0F86C35C0F81415C0F80C251DD129
:10903000A268531C1FBF02F5E0734FF0A0414FF030
:10904000000C41F823C0E368591C0BD04FF0A04C32
:1090500001219940CCF8081503F5E0714FF0030E9B
:109060004CF821E0C0F80835C0F810252C2202FB8E
:1090700008F2AB18C3F804902369AB50B9F1000FA4
:1090800020D04FF48E71247FFFF7A0FE4FF4A27121
:109090003068FFF79BFE32681A4BC2F80433130B9B
:1090A00042F307326101002AC9B21EDB1648841858
:1090B00084F800130121520903F01F0301FA03F39E
:1090C00040F8223033680422C3F800252C2303FB28
:1090D00008530022C3E9062283F829205A6101229D
:1090E00083F82A203846BDE8F883084A03F00F03C6
:1090F000D154E7E70827F5E71127F3E71C330020F1
:10910000698E02008000020000E100E014ED00E042
:109110000279044B2C2101FB02335869003818BF37
:10912000012070471C3300202DE9F84F064690F8C7
:10913000048089469246FFF7EBFF044600283CD1A5
:10914000204F2C2508FB057B4FF48E71CBF814A023
:10915000CBF80890CBF820008BF828003068FFF798
:1091600035FE3068012383605946FFF737FEDBF890
:1091700004305D461BBB3068DBF814402B6A9C4210
:1091800011D83368D3F81C21002AFBD00122DA6001
:1091900000202C2303FB087700237B61BDE8F88FB8
:1091A00095F828303BB9D0F81C31002BF8D059463F
:1091B000FFF714FEE2E70F20EBE71120EEE7204671
:1091C000ECE700BF1C3300202DE9F0473A4D07794A
:1091D0002C2303FB075306465C6824B103684FF455
:1091E0000170C3F808032C2303FB0753986950B19F
:1091F000D869002841D024B133684FF40172C3F814
:109200000423112436E09A61D9605862D8612C2376
:1092100003FB075393F829301BB910B93046FFF709
:10922000ECFD4FF02C0808FB075A3068DAF80430E0
:10923000002B37D14FF4A271D046FFF7C7FD30683D
:10924000D0F82491D0F80831D0F84441CBB914B902
:10925000B9F1000FF3D02C2303FB07550023AB61BA
:10926000B9F1000F24D12CBB95F8291033680122E5
:10927000B1B11A602046BDE8F0871961DA610120BA
:10928000C5E7B9F1000FE6D1002CE4D14146FFF764
:10929000C4FDDAF82430DAF818209A42CFD8DAE799
:1092A0005A60E7E74FF40173C0F804330024E1E7A4
:1092B0000324DFE70F24DDE71C33002000234350A5
:1092C00082B043580193019B02B070471FB5012340
:1092D0008DF80030044BCDE90110D3E90012684647
:1092E000904705B05DF804FB483300207FB5434A42
:1092F000D2F82461002E60D010464FF49271FFF72F
:10930000DDFF02238DF80030D2F88034C2F88034BB
:109310000393D2F83C350293394BDA68019200226C
:10932000C3E906226846D3E9001290473348D0F8D3
:10933000443173B14FF4A271FFF7C0FF304B9A690B
:109340003AB10022C3E90622D968D0F83C05FFF7FC
:10935000BDFF2A48D0F82031ABB14FF49071FFF730
:10936000ADFF0123C360264B5A6962B1D0F84C159A
:109370000291002299688DF8002001915A61684697
:10938000D3E9001290471D48D0F858319BB14FF4F3
:10939000AC71FFF793FF1A4B5A6962B1D0F84C15C4
:1093A0000291002299688DF8002001915A61684667
:1093B000D3E90012904704B070BDD2F81031002BF1
:1093C000B4D04FF488711046FFF778FF0C4BD2F8F9
:1093D0003C0599698842A9D1DC69D96864B1D2F8A1
:1093E000005225F02005C2F800521A699C61DA602B
:1093F000DE61FFF76BFF99E79C61FAE70020004010
:10940000483300202DE9F8435A4E90F80480242375
:1094100003FB0863044693F820300D469146002B69
:1094200040F0A38054490068FFF7AEFC07460028CF
:1094300040F09D802A682068511C0BD04FF0A0415D
:1094400001239340C1F8083502F5E0734FF0030C97
:1094500041F823C069684B1C1FBF01F5E0734FF052
:10946000A04C4FF0000E4CF823E0AB69C0F8243557
:1094700095F814C06B7DBCF1010F4CEA0303C0F8F2
:109480006C35C0F80C25C0F814151DD1AA68531C02
:109490001FBF02F5E0734FF0A0414FF0000C41F800
:1094A00023C0EB68591C0BD04FF0A04C0121994010
:1094B000CCF8081503F5E0714FF0030E4CF821E0ED
:1094C000C0F80835C0F81025242202FB08F2B318B2
:1094D000C3F804902B69B350B9F1000F2FD04FF4AB
:1094E00088712A7FFFF7EAFE20684FF49071FFF73A
:1094F000E5FE20684FF49271FFF7E0FE20684FF41C
:10950000A271FFF7DBFE4FF4AC712068FFF7D6FEC7
:1095100023681A49C3F80413190B43F307335201A4
:10952000002BD2B21CDB1648C51885F80023012297
:109530005B0901F01F0102FA01F140F823102368D2
:109540000822C3F80025242303FB08660023C6E98C
:1095500006337361012386F820303846BDE8F8836E
:10956000084B01F00F015A54E9E70827F5E71127E6
:10957000F3E700BF48330020ED92020010034200E1
:1095800000E100E014ED00E00279044B242101FB2E
:1095900002335869003818BF012070474833002053
:1095A00001F06043B3F1005F2DE9F04706468846BD
:1095B00092463BD190F80490FFF7E6FF044600285E
:1095C00036D11D4F3068242505FB09754FF4907185
:1095D000C5F814A0C5F80880FFF770FE4FF4AC7111
:1095E0003068FFF76BFE33686A69A968C3F84415F1
:1095F000C3F8482501229A606A68DAB9D3F82021B5
:10960000D3F858011AB90028F8D00F2007E0002835
:10961000FBD10122DA60D3F85821002AFBD02423A1
:1096200003FB097700237B61BDE8F0871020FBE78F
:109630001120F9E72046F7E748330020F8B501F09C
:109640006043B3F1005F04460F465ED10379304DAD
:10965000242101FB0351496821B100684FF40476CD
:10966000C0F80863242000FB03539E6956B1D869F3
:10967000002839D021B123684FF40472C3F80423C1
:10968000112030E09A61DF60DE6120684FF488715C
:10969000FFF714FE20684FF4A271FFF70FFE236856
:1096A000C3F83475C3F8382516BB01221A60247933
:1096B000242202FB045252680ABBD3F81011D3F8DB
:1096C0004421D3F82401114302D10028F5D00A46E1
:1096D000242303FB04550023984218BF03209A4219
:1096E000AB6118BF0F20F8BD1F61DA610126CCE71E
:1096F000D3F8002242F02002C3F80022D7E74FF44B
:109700000472C3F804230020EDE71020EBE700BF4C
:10971000483300200220FEF785BF00002DE9F04706
:1097200080460D46FEF79EFF0328044610D8012D03
:1097300010D0022D30D05DB91A48FDF7A9FD1A4BA3
:1097400004EB440213449D78184B1B5DAB4219D0C7
:10975000BDE8F087144E00EB4003F218F55C537837
:10976000470053B1DFF84C900E484A464FF4804111
:10977000FDF760FD08B989F8008027443E440B4B93
:10978000B2781A55002DE3D0094B1B68002BDFD0AF
:109790002846BDE8F047184700EB4004024804445F
:1097A0006578EFE7402B00206E33002089330020DE
:1097B000843300206C33002000780221FFF7AEBF15
:1097C00008B5094B1B7853B10020FEF701FF0120BB
:1097D000FEF7FEFEBDE808400320FEF7F9BEBDE837
:1097E0000840FEF701BF00BF6D330020F8B57A4C8A
:1097F000237805461BB100232370FFF7E1FF172DE7
:1098000000F28780DFE805F00C1717425364757F7C
:10981000878C878C949999999999C3C8D0D8E3E398
:10982000FFF7CEFF6D48FDF733FD6D4B0022044678
:109830001A702046F8BD0020FEF7B0FEF0B10020FF
:10984000FEF7C6FE022D0CBF4FF4E1644FF47A64BC
:10985000634B1D7000254FF400464FF47A70294683
:109860004FF4FA620023E4FB060102F0E1F92A4614
:109870000146BDE8F8405948FDF7DCBCFEF79CFE08
:10988000022D0CBFC8244FF4C874E1E70020FEF796
:1098900085FE40B10020FEF79BFE4FF44874504B0C
:1098A00003221A70D6E7FEF787FEC824F7E70020E8
:1098B000FEF774FE38B10020FEF78AFE4FF47A649A
:1098C000474B0422EDE7FEF777FE4FF4C874F7E745
:1098D0000020FEF763FE48B10020FEF779FE404B02
:1098E00005221A7040F6CD410022C2E7FEF764FE61
:1098F000F5E70020FEF796FE394B06221A7000228B
:1099000040F26661B5E70020FEF756FE344B0722B1
:109910001A7000248DE701202070FEF783FEEEE729
:1099200001202070FEF77EFE00224FF40051A0E7D8
:10993000FEF769FE2A4B0C22EAE72A482A4EFDF779
:10994000A7FCD5F1110504461CD0D8B9012D13D0C0
:10995000C820454321464FF400474FF47A704FF436
:10996000FA620023C5FB070102F062F922460146B4
:109970001C48FDF75FFC04460220FEF71DFE012394
:10998000337056E70220FEF723FE0023F8E7FFF7C7
:1099900017FF134B1222BBE7FFF712FF0020FEF761
:1099A0000BFE0F4B1322B3E7FFF70AFF0120FEF770
:1099B00003FE0B4B1422ABE7FFF702FF0020FEF77C
:1099C000FBFD0120FEF7F8FD054B1522A0E7FEF791
:1099D0001AFE034B1D709CE780330020602B002093
:1099E00088330020202B00206D330020044B1B689F
:1099F000DB0703D5034B1878FFF7F8BE704700BFAD
:109A00007C3300208833002010B5002914BF0324C4
:109A10000024FEF739FE800000F1A040D0F80027B6
:109A200022F44032C0F80027D0F8003743EA04435C
:109A3000C0F80037002010BD032801D8FEF704BE8F
:109A400000207047044B1B6813F0010301D0FFF79F
:109A5000CDBE1846704700BF7C33002038B51C4B84
:109A600018601C4B10F00204054619601AD01A4BFE
:109A70001A480E221A700F22DA7010229A711122DF
:109A80005A72042140F23332FDF710FA044648B905
:109A9000FDF764FA044628B90146114A1148FDF75A
:109AA000B7FB0446EB0711D50120FEF7F3FD6CB9B7
:109AB00021460D4A0D48FDF7ABFB044630B9BDE821
:109AC00038400B4A0B480121FDF7A2BB204638BDA8
:109AD0007C330020843300206E33002048CE020007
:109AE000B99702006CCE0200ED99020070CE020020
:109AF0001597020068CE0200032811D8012A0AD166
:109B000001290FD100F10E02D2B20D4B00EB400043
:109B10001A54002070470129F7D0022904D049B116
:109B2000072070470022F8E7054B00EB400018447F
:109B30004270EEE7024B00EB400018448270E8E709
:109B40006E330020032802D80121FFF75DBF0620F5
:109B5000704708B5012202210020FFF7CDFF08B1B0
:109B6000072810D1072202210120FFF7C5FF08B105
:109B7000072808D100210A220846FFF7BDFF10B1CF
:109B8000072808BF002008BD0388102B10B502D09D
:109B9000112B1ED010BD1A4C2168B1B90122084604
:109BA000FFF7AAFF08B1072824D1072202210120CC
:109BB000FFF7A2FF08B107281CD1042202210020D0
:109BC000FFF79AFF08B1072814D1236801332360F7
:109BD000E0E70B4A1368013B1360002BDAD1FFF773
:109BE000B8FF0028D6D0074B1B68002BD2D0BDE8A9
:109BF00010401847034B1B68002BE6D09847E4E75A
:109C0000943300209033002008B50020FFF79AFF1E
:109C100008B1062806D10120FFF794FF10B10628ED
:109C200008BF002008BD00000D4B10B518600C46A1
:109C300029B10120FFF700FF40B102232370094B37
:109C40001B6853B9BDE81040FFF783BFFFF7F4FE70
:109C500008B10B23F2E72070F1E7002010BD00BF30
:109C6000903300209433002076DF70477ADF70470E
:109C70007CDF70477FDF70478FDF7047B1DF704751
:109C800033DF7047FDF780B908B50020FFF7DAFE33
:109C900008B1FDF779F9FFF7B7FF08B1FDF774F9DF
:109CA000FFF7EEFF18B1BDE80840FDF76DB908BD3C
:109CB0000388212B13B504463FD007D8112B2DD094
:109CC000132B48D0102B0CD002B010BD522B4AD011
:109CD000562B01D03B2BF7D1A0881321FFF7C4FFEF
:109CE00015E0254B25482649C01AC008000440F05D
:109CF0000300FCF769FE0720FFF7A4FE08B1FDF79B
:109D000043F9204BA1882048198001F0C7FB0028A7
:109D1000DAD002B0BDE81040FDF736B9164B17484F
:109D20001A49C01AC008000440F00300FCF74CFEBA
:109D3000144B4FF6FF721A80C6E7002380888DF817
:109D4000043001A98DF80530FFF796FF0028BBD03D
:109D5000FDF71AF9B8E70B4800231A468521008859
:109D6000FFF788FFD3E7074800231A461946008803
:109D7000FFF784FFCBE700BF98C60200C0C6020011
:109D800074CE0200862B0020DC3800207ECE02003C
:109D900008B503784BB9054B3B211888FFF764FFE2
:109DA00018B1BDE80840FDF7EFB808BD862B0020CC
:109DB000072808B513D00A280DD0042819D10D4B57
:109DC00013211888FFF750FF30F0080311D0BDE8C9
:109DD0000840FDF7D9B8BDE80840FFF755BF054B6F
:109DE0001A884FF6FF739A4203D1034800F0F1FE40
:109DF000EAE708BD862B00209034002008B548B162
:109E000003280BD10220FFF71DFE38B1BDE8084042
:109E1000FDF7BAB8BDE80840FFF736BF08BD00003F
:109E2000F7B50378012B33D0022B31D073BB1B4C19
:109E30001B4D20782844FDF705FC23780133DBB265
:109E40001D44237015F8012C0A2A05D00D2A03D0D1
:109E5000144A12889A4219D8012B15D9124D104E66
:109E6000124F2378ADF806300DF106022B883146EB
:109E7000384601F08FFC082806D01328F1D00528B9
:109E800002D008B1FDF780F80023237003B0F0BDC5
:109E9000406803B0BDE8F040FDF776B88C34002090
:109EA00098330020842B0020862B0020882B002054
:109EB0002DE9F0410578064645BB154C154BDFF8FA
:109EC0005880E41AE408240444F00104B28A95425C
:109ED0000AD33369134413F8013C0D2B16D10A2021
:109EE000FDF7C6FB1128F9E73369585DFDF7C0FBA4
:109EF000074648B11128F7D0024641462046FCF7F4
:109F000067FD3846FDF740F80135DFE7BDE8F08131
:109F1000C0C6020098C602008BCE02000D4B4A88D4
:109F20001B889A4214D10A8840F677239A420FD1AF
:109F30008B88094A09480A49033B9BB21380094AA6
:109F4000801AC00800041A4640F00300FCF749BD1F
:109F5000704700BF862B0020842B0020C0C6020063
:109F6000B6CE020098C60200FDF70EB808B5084943
:109F7000084801F073F908B1FDF706F80548F72124
:109F800001F080F918B1BDE80840FCF7FDBF08BD3D
:109F90001D9F0200C438002000B5774D0FCDB1B031
:109FA00005AC0FC495E80300744B754A01934FF458
:109FB000807384E80300CDE903230293714A0723E9
:109FC00001A905A8FDF7E6FA08B1FCF7DDFF4FF49B
:109FD00080410020FCF75AFB08B1FCF7D5FFFCF7E5
:109FE00093FAFDF7E3F808B1FCF7CEFF66490320CA
:109FF000FFF734FD08B1FCF7C7FF05A90020FFF704
:10A0000013FE08B1FCF7C0FFFEF79EF808B1FCF79D
:10A01000BBFF01F03DFC08B1FCF7B6FF002305A92A
:10A020000120059301F0C6FC08B1FCF7ADFF05A8BF
:10A0300001F090FD08B1FCF7A7FF112353488DF8FC
:10A04000043001F0A0FF514982B201A8FFF710FED1
:10A0500008B1FCF799FF0822002105A801F03EFF96
:10A060001023ADF814303C23ADF816300023ADF8C2
:10A07000183005A84FF4C873ADF81A30FFF7F6FD95
:10A0800008B1FCF781FFFFF771FF414B4148059391
:10A0900005A901F0F1F908B1FCF776FF04220021CF
:10A0A0000DEB020001F01AFF3B4B3C48019301A964
:10A0B00001F0F6FA08B1FCF767FFAC22002105A811
:10A0C00001F00CFF02238DF814304FF4A063344AE2
:10A0D000ADF816300123ADF8603019928DF890304C
:10A0E000402244F25063CDE927232E482E4B2E9375
:10A0F00005A900F0ADFB08B1FCF746FF2948012196
:10A1000000F0A3FB1C22002105A801F0E7FE0023BC
:10A110004FF4A032CDE90532ADF822304FF4F022F1
:10A120008DF82430214B07920A930322204B8DF89F
:10A13000202005A80B9300F06BFE08B1FCF724FF6C
:10A140001C4801F071FE1C4B1C481D49C01AC00878
:10A15000000440F00300FCF737FC1248032100F034
:10A16000F6FB08B1FCF710FFFCF7E2FA0028FBD180
:10A17000FEF700F8F8E700BF1CCF0200E838002027
:10A18000E8390020219E0200B19D0200D2CE0200DB
:10A19000859C0200DC380020B19E0200882B002044
:10A1A000802B002090340020FD9D0200919D020034
:10A1B000699F0200DECE020098C60200C0C60200FF
:10A1C000F0CE02000369C26893429CBF80681B18EE
:10A1D000013B981A70472DE9F843D0E902940546EF
:10A1E000A9EB04084068904520440F46144404D964
:10A1F00001F04BFEEC60BDE8F8834246A4EB090495
:10A2000001F043FE6868224607EB0801F0E72DE9FC
:10A21000F843C5680646894617464FF0000834697A
:10A22000B3687068A54228BFE418013C621B5C1B40
:10A23000BC4228BF3C46944228BF144649462844A5
:10A24000224601F022FEB3682544AB4208BF002538
:10A250003F1BA044A144F560E1D14046BDE8F8832E
:10A2600010B5114C114AA2610223C4E90433104B0A
:10A27000E361A2644FF400730E4A0F492362E26463
:10A2800000231022E01DA3626362E362A36563659D
:10A29000E365226501F055FE0849204601F051FEB4
:10A2A0002023A37110BD00BFE83A002034CF020084
:10A2B000703B0020603B00203DCF020041CF0200F8
:10A2C00070B5164B182400FB04451D4404FB0033F5
:10A2D0001646DC6A012C0ED0022C18D0E4B92846B0
:10A2E000FFF770FF864204D832462846FFF773FF17
:10A2F0003446204670BD2846FFF764FF8642344648
:10A3000028BF044622462846FFF765FFF1E72846A6
:10A31000BDE87040FFF77BBF0024EAE7E83A002081
:10A32000FFF79EBF6DDF704779DF70477DDF7047B5
:10A3300064DF70472DE9F04F85B000250E9CBDF815
:10A340003CB0B4F800A00191074690461E46A946CD
:10A350003A884A450DDC45B12388013BA3EB0A034B
:10A360009BB2FF2B3AD806F80A30002005B0BDE8B2
:10A37000F08F7A6852F82900039000220DF10B014A
:10A3800003A8FFF7D5FF0028F0D19DF80B20424528
:10A3900021D12288002D14BF0020022002EB0801E9
:10A3A000014459451ADC3DB9013292B2019B228029
:10A3B000B35422880132228022880DF10B013244ED
:10A3C00003A8FFF7B5FF0028D0D121889DF80B2006
:10A3D0000A442280012509F10109B9E70C20C5E7EB
:10A3E0002DE9F341089FBDF824801546CDE900789A
:10A3F000022204461E46FFF79DFF50B93346102245
:10A4000029462046CDE9087802B0BDE8F041FFF7C3
:10A4100091BF02B0BDE8F0812DE9F04F002317880D
:10A42000138090F82D3085B006460D46144653B380
:10A43000082F01D80C2027E102A8FFF773FF00289E
:10A4400040F0228123880822EA54238801339BB2FA
:10A450001B222380EA542088013080B2208006220B
:10A460000DF10901284401F010FD23889DF8082012
:10A4700006339BB212F0FE0218BF01222380EA5479
:10A48000238801332380B378FBB123880433BB4294
:10A49000D0D802A8FFF748FF002840F0F5802388B5
:10A4A0000322EA54238801339BB219222380EA5401
:10A4B0002388BDF8082001339BB2E9182380EA54B1
:10A4C000120A4A70238802332380F2789AB12388D3
:10A4D000D91CB942AED80221E954238801339BB27A
:10A4E00001212380E95423880B449BB22380EA5442
:10A4F00023880B4423807268AAB12388D91CB942EF
:10A5000098D8022192F90020E954238801339BB2A4
:10A510000A212380E954238801339BB22380EA5423
:10A520002388013323803389002B40F0A180338AB4
:10A530005BB1CDE900472B460722032106F110004D
:10A54000FFF74EFF002840F09F80338B5BB1CDE9D1
:10A5500000472B461522142106F11800FFF740FF93
:10A56000002840F09180326A002A40F09080D6F8AE
:10A570002480B8F1000F30D0B8F804302188981C3E
:10A580008A1C0244BA423FF655AFFE283FF652AF4E
:10A5900003336B54238801339BB2FF222380EA5498
:10A5A000238801339BB22380B8F80020EA54E918CD
:10A5B000120A4A702088023080B22080B8F8042045
:10A5C0005AB1D8F8081000296BD0284401F05DFC7E
:10A5D0002388B8F804201344238096F82C30002BED
:10A5E00040F09880307800284ED03388012B58D026
:10A5F000228802F1020CBC453FF61CAF012805D1B0
:10A600007378023313449F42FFF414AF023FBF1A22
:10A61000BFB202A905EB0C00ADF80870FFF786FE8B
:10A6200090BB3178BDF80830022900F0B98072780B
:10A630009A4202D39F4280F0B180012940F0B2805B
:10A64000974293B2C0F0AE80ADF808300821BDF853
:10A650000830FE2B3FF6EEAE22880133AB54228841
:10A66000013292B22280A9542288134423800BE045
:10A67000CDE900472B460622022106F10800FFF72C
:10A68000AFFE00283FF453AF05B0BDE8F08FB4F83B
:10A6900000C00CF10603BB423FF6CCAE1188052981
:10A6A00001D80720F0E76FF4486E01EB0E039BB270
:10A6B0004FF27D3E7345F4D95388052BF1D96FF4E1
:10A6C0004860181880B27045EBD94FF6FF70814290
:10A6D00001D09942E5D8052305F80C3023880133D1
:10A6E0009BB212212380E954238801339BB223803B
:10A6F0001188E954E818090A4170238802339BB293
:10A7000023805288EA54E918120A4A7023880233D7
:10A7100023802CE7B36A002BC3D04FF000084FF022
:10A720000C0A4FF0160BB16A5FFA88F20AFB02F2CC
:10A7300001EB0209B9F80430981CFE283FF67AAE06
:10A74000208803332B54238801339BB2238005F8E0
:10A7500003B0238801339BB223808A5AEA54E91854
:10A76000120A4A702088023080B22080B9F8042092
:10A770005AB1D9F80810002993D0284401F085FB7C
:10A780002388B9F804201344238096F82C2008F17C
:10A7900001085FFA88F39A42C5D823E7092156E7F2
:10A7A0009F42FBD2ADF8087050E730B5C8B1F2B1A6
:10A7B0000024651C8D4206DA1588A54212D80519B9
:10A7C0006D789D420ED1A14211D9005D48B101388A
:10A7D00080B230B10234A3B210FA84F4A14206DB95
:10A7E000138030BD055D01352C44A4B2E1E70020A3
:10A7F000F7E713B513460022ADF806200DF1060267
:10A800000446FFF7D2FF10B1BDF80630E01802B0E1
:10A8100010BD72DF704773DF704774DF704738B563
:10A82000012204460D46B0F81414D0F81004FFF7C6
:10A83000E0FF00B1057004F13C0204F5826104F10F
:10A840005400BDE83840FFF7E4BF80F8301070478F
:10A85000F8B504460F46002975D0002873D091F84A
:10A860007A301BB191F89830002B6ED1D7F8A03018
:10A87000042B6AD0D7F89C30042B66D04FF0000C24
:10A8800084F802C007F178060FCE251D0FC50FCE44
:10A890000FC596E8070085E8070084F830C0D7F8B0
:10A8A000A4306363D7F8A830A3634FF6FF7504F5AF
:10A8B0008263C4F82034A4F824540722614604F2C9
:10A8C000264001F00BFB23780BB984F8545094F820
:10A8D0002430002B14BFEE231F2304F15501C4F8CC
:10A8E0001014A4F8143404F214423846FFF794FD0F
:10A8F00040BB94F82430002B14BFEE231F2304F236
:10A900003121C4F81814A4F81C3404F21C4207F1D5
:10A910003C00FFF781FDA8B9A369A4F848304FF4C3
:10A9200080730125A4F8503063692064014684F8DF
:10A930003C50636404F13C0204F15400FFF769FFEA
:10A9400000B92570F8BD0E20FCE70720FAE7F8B53E
:10A95000077804460D46002F00F0048100F22646D9
:10A96000817007220021304601F0B8FAE38813B164
:10A97000A378012B04D0E3794BB1A378022B06D145
:10A98000636BABB1012284F82D240820984704F2B0
:10A99000274304F22D4113F8012B12B99942FAD141
:10A9A00017466B1E032B51D8DFE803F0050B0F127F
:10A9B00084F82D34EBE7A3791BB194F8243003B964
:10A9C0005FB9E3790BB1002F42D1237A002B41D13B
:10A9D000637A002B0CBF00250425636BA570002B48
:10A9E0003AD0033D012D37D86279AAB394F82E24CA
:10A9F00092BB84F83024012284F82F240720984742
:10AA000004F13C0518220021284601F067FAE26AA9
:10AA1000531E0121022B28BF0A4684F8512094F8C6
:10AA2000242084F83C1032B1A36A581E022828BFA3
:10AA30000B4684F85230A178002384F85030042962
:10AA40001BD8DFE801F0770D223559000025C4E757
:10AA50000225C2E70325C0E7002384F82F34CFE79F
:10AA6000C4E91063C4F820340223012284F83C3086
:10AA7000802384F83120A4F84830A378002B5CD1DF
:10AA8000636B002B6AD1002067E00223002A84F860
:10AA9000313014BF0723032384F83C302369A4F822
:10AAA00048300023C4F82034E36826646364E4E794
:10AAB00063696364A369A4F8483012B1062384F87B
:10AAC0003C306379B3B194F82E349BB994F83034A8
:10AAD00083B1022384F8503004212046FFF79FFE03
:10AAE0000028CAD1052384F8313004F58263C4F804
:10AAF0002034C2E70323F6E7E3696364236AA4F81A
:10AB0000483012B1062384F83C30637983B194F85D
:10AB10002E346BB994F8303453B1022384F850309A
:10AB200004212046FFF77BFE0028A6D10623DAE7A2
:10AB30000423D8E784F831309FE7D4F820142A465C
:10AB400004F15400FFF765FE38B994F8301094F81A
:10AB50005400FFF760FE002892D0F8BD94F8310051
:10AB6000984790E70820F8E70388112B10B50C46AA
:10AB70000AD0262B1FD0102B05D1C37B012B02D16D
:10AB80008388A1F8243410BD0022838881F82E2404
:10AB9000B1F824249A42F6D10B79002BF3D101218C
:10ABA0002046FFF7D4FE0028EDD0A36B002BEAD09F
:10ABB000BDE810401847037A013B012BE3D88978A0
:10ABC00005230131B1FBF3F303EB8303C91AC9B2C7
:10ABD000E6E738B5044690F85400FFF71EFE01235F
:10ABE00084F82E34002384F8303484F85030062161
:10ABF0002046FFF714FE054638B9A1782046FFF736
:10AC0000A6FE10B1A36B03B19847284638BD75DF87
:10AC1000704776DF70477ADF70477BDF7047000050
:10AC2000034B1A8882420CBF18460020704700BFB1
:10AC30008C3D0020024B9B6903B11847704700BF51
:10AC4000703D002073B585B22846FFF7E9FF044642
:10AC500038B3174E027A337B9A420CD200F10A01C4
:10AC60002846FFF7D4FFF0B111281AD002B0BDE892
:10AC70007040FFF7DFBF00230372337C43B13B21F9
:10AC80002846FFF7C6FF30F0080301D0FFF7D2FFD8
:10AC9000736933B100228DF80420ADF8065001A885
:10ACA000984702B070BD237A01332372F9E700BFE1
:10ACB000703D002037B50B46497A0F4A79B9D2E981
:10ACC00001141D7A0246002D18BF21465868FCF772
:10ACD000B1FA78B103B0BDE83040FFF7ABBF002157
:10ACE0001972536933B10122ADF806008DF80420C2
:10ACF00001A8984703B030BD703D00204B88028802
:10AD00009A4212D842889A420FD380888B8840F2A8
:10AD1000F311884294BF021A421A9A4205D8084495
:10AD2000984234BF00200120704700207047000087
:10AD30000388122B70B5014659D004D8102B1ED0B1
:10AD4000112B44D070BD502BFCD12F4BC288DB8916
:10AD50009A42F7D1038A022BF4D186883046FFF756
:10AD60005FFF05460028EDD001F1120000F07FF9E9
:10AD700038BB6868FCF78CFA0028E3D009E0C37B95
:10AD8000012BDFD14FF6FF70FFF74AFF054620B9D0
:10AD90000420BDE87040FFF74DBF1C4A8E88068036
:10ADA000002303721368C0F80A305368C0F80E30ED
:10ADB00010310A30FFF7A2FF134B6872DB89002BBA
:10ADC000C0D129463046BDE87040FFF773BF808888
:10ADD000FFF726FF04460028B4D04068FCF758FA75
:10ADE00008B1FFF727FF4FF6FF732380AAE7868895
:10ADF0003046FFF715FF05460028A3D008310A307A
:10AE0000FFF77CFF6872DCE7703D0020A03D00206A
:10AE1000F8B5064648B305460FCD154F3C460FC45E
:10AE200095E8070084E807003068124C3C60B0B138
:10AE3000FFF7F1FEC0B9326813682360536863609E
:10AE40000D480E4A4FF6FF7303800D4B40F8043F48
:10AE50000021FCF7DDF9002818BF032004E020469C
:10AE6000FFF7DBFE0028EBD0F8BD0E20FCE700BFAB
:10AE7000703D0020A03D00208C3D002045AC02002C
:10AE8000A83D00200AB1FCF71BBEFCF722BE73B53B
:10AE90000191019C06466CB100252C46294601A86B
:10AEA000FCF721FE18B106EB440301349D80013507
:10AEB000142DF3D13046346002B070BD2DE9F04757
:10AEC00003888488103B8CB005460A2B21D8DFE824
:10AED00003F0064020202020202020654700DFF8D6
:10AEE000E880D8F80830DB430093D8F804106846AF
:10AEF000FCF725FE009901A8FFF7C9FF0DF108092D
:10AF00000027019B9F4207D3132C12D90420FCF782
:10AF10003BF80CB0BDE8F08739F802AB00260136EB
:10AF2000514608EB8600FCF7D4FD1E2EF7D1013701
:10AF3000E7E71F482146FCF7C3FD1E482146FCF702
:10AF4000BFFDEB7B022BE4D11B482146FCF7B8FD8B
:10AF5000DFE7174821460CB0BDE8F047FCF7B9BD64
:10AF6000027A16483F2A4FEA1215214694BF002262
:10AF70000122FFF787FF022D94BF00220122104813
:10AF80002146FFF77FFF012D0E4894BF00220122CA
:10AF900021460CB0BDE8F047FFF774BF037A002BE1
:10AFA000B7D1427A0548C2F3C0022146F1E700BF9B
:10AFB000D03D0020CC3D0020D43D0020E03D0020CD
:10AFC000DC3D0020D83D0020C83D0020132801466C
:10AFD00002D80248FCF787BD00207047CC3D002016
:10AFE00010B50446FFF7F2FF002814BF20461420D6
:10AFF00010BD70B50546164608460AB90E2070BD4C
:10B0000000231360002DF9D02B68002BF6D0EB88BD
:10B0100013F003040ED1FFF7E3FFC0B214280BD0E6
:10B020002B7983420AD9EA882B6800FB0230306012
:10B030002046E4E70720E2E70520E0E70420DEE71A
:10B04000AADF7047002301380B70042806D8DFE818
:10B0500000F00306080A0C0011230B70704721232F
:10B06000FBE73123F9E71223F7E72223F5E700880E
:10B0700000F001007047F0B58B7891B0012B0C46C1
:10B0800038BF01238DF80E3005460B88ADF80C3023
:10B09000002116466846032200F020FF607C6946C6
:10B0A000FFF7D0FFA07C0DF10101FFF7CBFFE27BA2
:10B0B000237B217D43EAC203227C43EA02139DF8ED
:10B0C0000220002922F0190203F0190314BF022103
:10B0D0000121134361F342031C22002109A88DF8CA
:10B0E000023000F0FBFE637B13F0300F15D002AF8F
:10B0F00003220021384600F0F1FEE07C0DF1090149
:10B10000FFF7A0FF11238DF808309DF80A300E9745
:10B11000012262F342038DF80A30637B8DF82430FC
:10B120001422A37B8DF82530002104A800F0D6FE60
:10B1300003AB0493A388ADF81C30A368CDF814D0FA
:10B140001BB1E288ADF818200893A369002B31D019
:10B1500001AF03220021384600F0C0FEA3691A881F
:10B16000ADF82C205A88ADF82E205A680D97187B20
:10B170000A923946FFF766FFA3690DF10501587B76
:10B18000FFF760FFA3699A7A197A41EAC201DA7A75
:10B190009B7B41EA02119DF80620002B01F019016A
:10B1A00022F0190214BF02230123114363F3420169
:10B1B0008DF80610E36903B10C93334604AA09A97C
:10B1C0002846FFF73DFF11B0F0BD90DF7047A5DFC7
:10B1D0007047B5DF704700007FB50023ADF8081059
:10B1E000ADF80A106A4602A90646ADF80C30ADF873
:10B1F0000E300093ADF80430FFF7E7FF054600B3CB
:10B20000114B124CE41AE408FDF740F8240444F012
:10B21000010403460E4932462046FBF7E2FBBDF827
:10B220000020BDF8023052EA030103D0094920464C
:10B23000FBF7D7FBBDF804201AB107492046FBF7FE
:10B24000C7FB284604B070BD98C60200E8C60200DD
:10B2500048CF020092CF0200D1CF020080B14FF060
:10B26000F7130360FB230371F723C38017230381C4
:10B2700041F6FB3200230161438182811846704709
:10B280000E20704730B1A1F11703E02B04D80180E4
:10B29000002070470E2070470720704713B5034603
:10B2A00080880C46B8B91A88242A00F09C8014D8EB
:10B2B000112A74D0232A00F0A780102A3ED0A37A46
:10B2C0004BB1E1880020FFF782FF002840F0A28008
:10B2D0004FF48073638102B010BD3A2A68D0552ABA
:10B2E000EDD1DB88C988A072172B38BF17238B429A
:10B2F00028BF0B462381FFF76CFF60B1FCF7C6FF48
:10B300004E4B4F4902464F481B1ADB081B0443F0C3
:10B310000100FBF75DFBE27A002AD0D12369002B04
:10B32000CDD040F67721ADF802202289ADF800108B
:10B33000ADF80420694620469847C0E7DB7B0A79D0
:10B340000A73012B13D0022B14D0E18823898B427E
:10B3500005D20020FFF73BFF70B90123E372217B88
:10B36000637B8B42ABD20020FFF736FFA7E70B8849
:10B37000E380EAE74B88FBE7112802D10123A3729F
:10B38000EDE7FCF783FF2D4B2F4902462D481B1A92
:10B39000DB081B0443F00100FBF71AFBDFE7F72390
:10B3A000CB8017230B8141F6FB3348818B8186E7E5
:10B3B0005B89CA88934228BF1346172B0A6938BF96
:10B3C00017230B8162B1C97A51B140F67721ADF8EC
:10B3D0000010ADF80200ADF80430694620469047F1
:10B3E000002363816BE71A7A0B694A73002B3FF4E1
:10B3F00066AF4DF67A218DF80500ADF80010ADF876
:10B4000002008DF8042095E7197A237B994228BF22
:10B410001946A9E711283FF45EAFFCF737FF074B49
:10B420000949024607481B1ADB081B0443F00100C8
:10B4300002B0BDE81040FBF7CBBA00BFE8C602007F
:10B4400058D0020098C6020027D00200B0DF704733
:10B4500066DF704710B5002104464088FFF7F8FF0B
:10B46000034608B9237210BD112801D10123F9E761
:10B470006368BDE81040184760B159B10378DE2B0E
:10B480000AD00B684360DE2303704FF6FF734380DE
:10B49000002070470E2070470820704728B10378BD
:10B4A000DE2B04D14180002070470E207047082019
:10B4B0007047F0B5054685B00C46002942D00028FB
:10B4C00040D00B78DE2B3DD182884B889A4204D144
:10B4D0000B7A13B10846FFF7BDFF2B88112B33D031
:10B4E000512B0FD0012B2DD12B7A012B2AD1A988DA
:10B4F0006288914226D12046237205B0BDE8F04013
:10B50000FFF7A8BFAE886388B3421BD1AF79022F83
:10B5100018D1AD7B2B1F022B14D8002110226846B6
:10B5200000F0DCFC052D18BF4FF4C07369463046AF
:10B5300018BFADF804308DF80070FFF787FF08B131
:10B540006368984705B0F0BD6388AA889A4204BF33
:10B550004FF6FF736380F5E7A8DF7047ADDF7047F4
:10B56000AEDF704762DF704770B505468AB00C46A3
:10B57000002962D0002860D00388502B37D0572B89
:10B5800072D0102B59D181886069002601AA0196DA
:10B59000FFF72FFD082231460DEB020000F09EFC64
:10B5A00002232189A888CDF80CD002AA0293FFF7C4
:10B5B000D5FF002841D1A369002B3ED00398FFF7A7
:10B5C00056FD002839D0019B0BB101221A701822B8
:10B5D000002104A800F082FC02238DF81030AB8813
:10B5E000ADF81830019B05940793A36923E0818887
:10B5F000606902AAFFF7FDFC1822002104A800F0F0
:10B600006DFCAB882189ADF81830EB88029A05945F
:10B610009942079218D12E8A022E15D16AB105F1EE
:10B620001200FFF724FD029B48B101221A708DF829
:10B630001060A3690BB104A898470AB070BD1870D8
:10B6400003238DF81030F4E7A2899A42F5D1A3695B
:10B65000002BF2D000228DF8102005F11202089282
:10B660002A8AADF82420E6E78188606902AAFFF7FC
:10B67000C0FC01460028E0D1029B1B78002BDCD0E7
:10B68000A369002BD9D0182204A800F027FC0123BD
:10B690008DF81030AB88ADF818300594029BA3E705
:10B6A000F0B53A4B8FB002AD04460A4603F1100CD8
:10B6B0002F46186859682E4603C608336345354639
:10B6C000F7D1002C5FD0002A5DD01368A36121461A
:10B6D0003846FFF747FF002853D12246012512F8CC
:10B6E000023B8DF8063001A92846ADF80450FFF75B
:10B6F00033FF002845D10146202206A800F0EEFBCA
:10B7000022460223ADF8183012F80C3B8DF81A309F
:10B71000BDF824301E4E6088079623F44F6323F053
:10B720000F0343F440632B4306A9ADF824308DF892
:10B7300029508DF82A50FFF79EFC10BB01462022AD
:10B7400006A800F0CBFB22460323ADF8183012F810
:10B75000043B8DF81A30BDF824306088079623F436
:10B76000875323F01F0343F480532B43ADF8243059
:10B7700006A940F201138DF82950ADF82A30FFF7E1
:10B780007AFC0FB0F0BD0E20FBE700BF9CD002009A
:10B79000F4000100F0B50F4687B016461C4605467A
:10B7A00018B3406901AA1946FFF723FCD8B94FF630
:10B7B000FF739C421BD0019BCBB11B78CBB133886C
:10B7C000F42B18D80146102202A800F087FBAB88A2
:10B7D000ADF8083002A901232046CDE904678DF8B1
:10B7E0000A30FFF7BDFE07B0F0BD0E20FBE70520D5
:10B7F000F9E70820F7E70720F5E710DF70470000BA
:10B8000013B5044609496846FCF7E5FC019808B9F8
:10B8100002B010BDD0E900212046904718B168461B
:10B82000FCF7E3FCF2E71120F2E700BFB8D002001A
:10B8300013B5044607496846FCF7CDFC019B0BB9DC
:10B8400002B010BD2046D3E9002190476846FCF7BE
:10B85000CCFCF3E7D0D002000B4991F816335A091B
:10B86000EC231341DB0706D5084B9A683AB94FF42D
:10B8700080030B60704742F20200FBF785BB1A6839
:10B8800042F480021A60704700E100E06832002054
:10B89000F7B5194F3C7864BB184E0125204635702A
:10B8A000FFF7AEFF112821D02046FFF7C1FF144B50
:10B8B0008DF80340186801900DF10300FBF700FFBD
:10B8C000104901A8FFF799FF0446B0FA80F040093B
:10B8D00038709DF80300FBF717FF3CB90A4B347032
:10B8E0001C70FFF7B9FF2846FFF7A2FF204603B000
:10B8F000F0BD0824FAE700BF453E0020443E00208A
:10B90000B4D00200A56F0200463E0020014B18781B
:10B91000704700BF453E002007B508496846FCF760
:10B920005AFC019B13B903B05DF804FBD3E9002076
:10B9300090476846FCF759FCF3E700BFC4D002000B
:10B94000FFF7EABF60DF704769DF704761DF70476C
:10B9500030B5134DADF5017D4FF4FA740DF10201D0
:10B9600003A8ADF80240FFF7F1FF70B9294601A81E
:10B97000FCF731FC029B002BF0D003A8D3E9002197
:10B98000904701A8FCF731FCF4E7052805D00DF538
:10B99000017DBDE83040FBF7F7BA0DF5017D30BD04
:10B9A00058D30200024B1B780BB1FFF7D1BF704791
:10B9B000473E002030B5054685B00C46002900F012
:10B9C000B5805B4B0B600C22002101A800F086FAC9
:10B9D00001238DF8063022688DF80450062301A952
:10B9E0002020ADF80830FFF7AFFF60B1FCF74EFC48
:10B9F000504B5149024651481B1ADB081B0443F0C7
:10BA00000100FAF7E5FF0C22002101A800F066FA18
:10BA100001238DF805302268002301A94020ADF8EC
:10BA20000630FFF791FF60B1FCF730FC414B444911
:10BA3000024642481B1ADB081B0443F00100FAF7D8
:10BA4000C7FF0C22002101A800F048FAF723226862
:10BA50008DF8045001A92320ADF80630FFF774FFDC
:10BA600060B1FCF713FC334B3649024633481B1ACE
:10BA7000DB081B0443F00100FAF7AAFF0C220021A7
:10BA800001A800F02BFA012022688DF8040001A91A
:10BA9000FFF75AFF60B1FCF7F9FB264B2A49024633
:10BAA00026481B1ADB081B0443F00100FAF790FF3D
:10BAB0000C22002101A800F011FA4FF4B0632268B3
:10BAC000019301A9A120FFF73FFF60B1FCF7DEFB66
:10BAD000184B1E49024619481B1ADB081B0443F089
